:100000000C94D1000C94F9000C94F9000C94F900B4
:100010000C94F9000C94F9000C94F9000C94F9007C
:100020000C94F9000C94F9000C94B7170C94261852
:100030000C94F9000C94F9000C94F9000C94F9005C
:100040000C94F9000C94F9000C94F9000C94F9004C
:100050000C94F9000C94F9000C94F9000C946D17B1
:100060000C94F9000C94F9000C94F9000C94F9002C
:100070000C94F9000C94F9000C94F9000C94F9001C
:100080000C94F9000C94F9000C94F9000C94F9000C
:100090000C94F9000C94F9000C94F9000C94F900FC
:1000A0000C94F9000C94F9000C94F90006C0FF0AB6
:1000B000000CA1017508150026FF0095400901817B
:1000C00002954009029102C00403090412010002D2
:1000D000000000405E04CB000001010203014D69F5
:1000E00063726F736F6674004D6963726F736F66CE
:1000F0007420555342204D6F757365000000000257
:1001000000090F0000030401000C000000000000C3
:1001100000000000000000000000000000000025BA
:100120000028002B002E00310000000000240027D2
:10013000002A002D00300004040404040304050216
:100140000202020403020202020606060606060472
:10015000040202020404040802011040804010203E
:10016000408040800802040180402010020110807D
:10017000102040402005010902A10185010509194F
:10018000012908150025019508750181020501095D
:1001900030093109381581257F750895038106C01E
:1001A000BA1A11241FBECFEFDAE0DEBFCDBF23E0C5
:1001B000ACE0B2E001C01D92A03CB207E1F712E052
:1001C000A0E0B1E0E0E4F0E402C005900D92AC30B4
:1001D000B107D9F710E0C1EDD0E004C02197FE01CE
:1001E0000E94FF1FC03DD107C9F70E94761C0C94E6
:1001F0001E200C9400008CBD9DBD089590E0FC0174
:10020000EA5AFE4F2491895C9E4FFC018491882319
:1002100099F090E0880F991FFC01E75DFE4FA591D2
:10022000B491FC01E55EFE4F859194918FB7F894EF
:10023000EC91E22BEC938FBF08953FB7F894809137
:10024000860290918702A0918802B091890226B51A
:10025000A89B05C02F3F19F00196A11DB11D3FBFFE
:10026000BA2FA92F982F8827BC01CD01620F711DCD
:10027000811D911D42E0660F771F881F991F4A95C7
:10028000D1F708958F929F92AF92BF92CF92DF9253
:10029000EF92FF924B015C010E941D016B017C01FA
:1002A0000E941D016C197D098E099F09683E7340EB
:1002B00081059105A8F321E0821A9108A108B108EF
:1002C00088EEC80E83E0D81EE11CF11C8114910455
:1002D000A104B10429F7FF90EF90DF90CF90BF9079
:1002E000AF909F908F9008952FB7F89460918202FD
:1002F0007091830280918402909185022FBF0895AE
:10030000409122025091230220912002309121023B
:1003100042175307B4F49091E8009570E1F390917F
:10032000E80092FD19C08093F10080912202909123
:10033000230201968F739927892B19F48EEF8093EE
:10034000E80080912202909123020196909323026B
:100350008093220281E0089580E00895DF92EF9279
:10036000FF920F931F93CF93DF93D82E8A01EB0157
:100370007B01E40EF51ECE15DF0559F0D7FE12C045
:10038000FE0184910E94800121968111F4CF0FEF2C
:100390001FEFC801DF91CF911F910F91FF90EF9058
:1003A000DF9008958881EECF6F927F928F929F9217
:1003B000AF92BF92CF92DF92EF92FF920F931F9373
:1003C000CF93DF93C82E8B017A018091280281118F
:1003D00011C08FEF9FEFDF91CF911F910F91FF9091
:1003E000EF90DF90CF90BF90AF909F908F907F90D5
:1003F0006F9008958091260280FF05C08091E000F3
:1004000082608093E000CE2DDF2DD12C8AEFB82EB4
:100410008C2D8770982E90E4892E8C2D8072782EEA
:100420008C2D8074682E2AE3A22E209719F4DD20EB
:1004300009F45DC08FB7F8949092E9009091E800BC
:1004400095FD0BC08FBFBA94BB2019F261E070E03C
:1004500080E090E00E944201E8CF9091F200282DC8
:10046000291B8FBF222379F32C171D0611F00CF0E6
:100470002C2F3FB7F8949092E9008091E80085FD19
:1004800002C03FBFD2CF822F90E0C81BD90B77208C
:1004900029F02150A0F01092F100FBCFF801C7FC29
:1004A0000AC0215050F041914093F100FACF44919D
:1004B0004093F10031962150D0F7080F191FDD202D
:1004C00021F0A092E800D12CDCCF8091E80085FDDE
:1004D00007C0A092E800DD24D394209791F2F3CFD7
:1004E000209779F6662069F2A092E800CACF5D985D
:1004F00084E680932502C7016ECFAF92BF92CF9260
:10050000DF92EF92FF920F931F93CF93DF931F928F
:10051000CDB7DEB77C016B015A0181E0898341E0F0
:1005200050E0BE016F5F7F4FF70183810E94D401CD
:100530008C0197FD0BC0F7018381A501B601806492
:100540000E94D401080F191F97FD8C01C8010F905C
:10055000DF91CF911F910F91FF90EF90DF90CF909F
:10056000BF90AF900895615030F02091F100FC01F0
:1005700020830196F8CF289884E68093240208957A
:10058000AF92BF92DF92EF92FF920F931F93CF93A0
:10059000DF935C018B01EB019BEFD92E2097C1F01B
:1005A0007E01C134D1051CF080E4E82EF12C80914D
:1005B000E80082FFFCCFC8018C1B9D0B6E2D8A0DBD
:1005C0009B1D0E94B302D092E800CE19DF09E6CF4E
:1005D000C801DF91CF911F910F91FF90EF90DF90B5
:1005E000BF90AF900895AF92BF92CF92DF92EF92FB
:1005F000FF920F931F93CF93DF936C017B018B01CD
:10060000040F151FEB015E01AE18BF08C017D1071C
:1006100059F06991D601ED91FC910190F081E02DA6
:10062000C6010995892B79F7C501DF91CF911F91FB
:100630000F91FF90EF90DF90CF90BF90AF90089513
:100640008091110281110BC010920D0281E0809304
:100650000E021092100210920F02809311028DE090
:1006600092E008950F931F93CF93DF931F92CDB71E
:10067000DEB719820E942003DC0112960D911C91B5
:100680000115110589F0D801ED91FC910280F381EB
:10069000E02DBE016F5F7F4FC801099597FD04C033
:1006A000F80100851185ECCF89810F90DF91CF9102
:1006B0001F910F910895CF93DF93FC01DB0181819E
:1006C00014963C911497682F630F7727771F683033
:1006D00071059CF5C281D381209739F5B383A2833C
:1006E000908112969C93129713968C93139715965C
:1006F0008C911597890F808390E080E0831708F52F
:100700002181C22FD0E0BE01675E7D4F16964D91CC
:100710005C911797480F591FEA014881EB01488304
:100720002F5F21830196EACFEA014885598541155B
:100730005105D1F7B987A887D3CF80E0DF91CF915A
:10074000089581E0FBCFEEEAF2E081E084838583C7
:1007500028EB32E0378326831186108627E531E0C7
:100760003183208314861386168615868787808BAF
:1007700081EC82870E9420036EEA72E00C945B0396
:10078000DC01FB0112962C91129784819581281728
:10079000190641F491818081813A31F49D7F81E095
:1007A000913009F080E008958132E1F79B3029F41F
:1007B00082811F968C9381E008959A3099F7828107
:1007C00050968C93F8CFDC01FB0188E4808389E4A8
:1007D000818384E482831D969C911D979F709F5B0B
:1007E00093831D968D919C9124E0969587952A95EB
:1007F000E1F78F708F5B848385E00895EF92FF921D
:100800000F931F93CF93DF93FB012081213871F564
:100810002381223259F5DC0112964C9124813581D5
:100820004217130619F5EC010B851C85F12CE12C00
:100830000115110589F0F8014481558162817381A8
:1008400080E80E94AE018F3F980749F0E80EF91E3C
:10085000D8010D911C91ECCF81E08F87C701DF910A
:10086000CF911F910F91FF90EF90089590E080E05D
:10087000F6CFCF93DF93CDB7DEB769970FB6F89475
:10088000DEBF0FBECDBFFC01DB018C918F5F8C936F
:100890009E012D5F3F4F8DE0D9011D928A95E9F7AA
:1008A00029E0298384E08A8391E09D8383E08E831D
:1008B0002A8721E22B879C879D879F8722E2288BAE
:1008C00027E02B8B25E02C8B8E8B20E430E0388FBB
:1008D0002F8B998F82818B8395858685998B8A8BC7
:1008E000838180688D8B49E150E0BE016F5F7F4F4F
:1008F00080E00E94AE0169960FB6F894DEBF0FBE8D
:10090000CDBFDF91CF9108950F931F93CF93DF93C6
:10091000EC01FB012A81848195812817190641F495
:1009200091818081813A31F49D7F81E0913049F05D
:1009300080E007C08132E1F79B3041F482818F8BE8
:1009400081E0DF91CF911F910F9108959A3019F4B2
:100950008381888FF5CF993059F70681178183817C
:10096000833081F489A19AA10817190709F7B80102
:100970008F8D98A10E94C00289A19AA190689AA324
:1009800089A3DECF8230A1F68B8D9C8D892B81F6D9
:10099000898D9A8D801791075CF2801B910B2D8DAC
:1009A0003E8DB801820F931F0E94C0021C8F0B8FD7
:1009B000C7CFFB0120812138B1F42381223299F481
:1009C000DC0112964C91129724813581421713064F
:1009D00051F421E057962C934CE150E06CEA70E022
:1009E00080E80C94AE0190E080E00895CF93DF930F
:1009F000CDB7DEB769970FB6F894DEBF0FBECDBF97
:100A0000FC01DB019C919F5F9C939E012D5F3F4FFA
:100A100081E1D9011D928A95E9F729E0298384E0D3
:100A20008A8391E09D8383E08E832A8721E22B874E
:100A30009C879D879F8722E2288B2CE1298B27E0CA
:100A40002B8B25E02C8B8E8B20E430E0388F2F8B86
:100A5000998F82818B83838180688D8B49E150E0FF
:100A6000BE016F5F7F4F80E00E94AE0169960FB6B6
:100A7000F894DEBF0FBECDBFDF91CF910895CF9325
:100A8000DF931F92CDB7DEB76983DC01ED91FC9156
:100A90000288F389E02D41E050E0BE016F5F7F4F97
:100AA00009950F90DF91CF9108950A970C943F0517
:100AB00008950895DC015B968D919C915C971816C2
:100AC000190674F459962D913C915A97281B390BAD
:100AD0005D96ED91FC91E20FF31F808190E0089507
:100AE0008FEF9FEF08950A970C945A05FC018189B6
:100AF000928997FF02C090E080E00895FC01838D09
:100B0000948D97FF02C090E080E00895FC018281FF
:100B10008F5BFB01808381E008950F931F93CF9338
:100B2000DF93EB018A018091BF02811105C00E9411
:100B3000A30381E08093BF02A801BE018EEA92E088
:100B4000DF91CF911F910F910C947D02CF93DF9392
:100B5000EC018A819B81DC01ED91FC910480F5819F
:100B6000E02D6A8509958A85813439F4EA81FB8113
:100B7000EA58FF4F8081846080831A861B861C861A
:100B80001D861E861F86188A80E0DF91CF9108950A
:100B900081E0693009F080E008950F931F93CF93AF
:100BA000DF93FC018B01EA0180819181892B31F176
:100BB0009281992349F128813981232BF9F0D801B9
:100BC0002D913C91D9014C918381682F691B770B42
:100BD00080819181860F971FDC014C938281815027
:100BE000828388819981019799838883D8018D9127
:100BF0009C91119701968D939C93DACF80E0DF91C1
:100C0000CF911F910F9108958381828381E0F7CF67
:100C10003F924F925F926F927F928F929F92AF928C
:100C2000BF92CF92DF92EF92FF920F931F93CF93D9
:100C3000DF9300D000D0CDB7DEB76C017A83698333
:100C40005C834B8384E0482E360182E1680E711C80
:100C500093E0392E5601A7E0AA0EB11C12E05524EC
:100C600053944601B0E18B0E911C29813A812115E4
:100C7000310509F4CBC0F60180A18230F1F0A8F56E
:100C8000882309F457C0813091F7AE014F5F5F4F61
:100C9000BE016D5F7F4FC5010E94CD05882309F419
:100CA000B5C0D6011596ED91FC911697808191966D
:100CB0008C939197818192968C93F60176826582CE
:100CC00030A2D60192968C919297843011F493962B
:100CD0001C92F60181A18250848325813681308760
:100CE00027838287818740A205C0833051F38430F7
:100CF00009F0BDCFD60192968C919297843019F16C
:100D0000853009F44CC0823009F073C0AE014F5FEA
:100D10005F4FBE016D5F7F4FC5010E94CD058823E7
:100D200009F474C0F601858984A3F6019682858250
:100D300010A29BCF14838581968190878783128729
:100D4000118750A2A2CFAE014F5F5F4FBE016D5F12
:100D50007F4FC5010E94CD05882309F457C0D601F5
:100D600055968C915597833001F798968C9198976A
:100D70008111DBCF93965C92939752968C91529708
:100D800096968C93969753968C91539797968C93AF
:100D9000979757968C91579795968C93C6CFAE019F
:100DA0004F5F5F4FBE016D5F7F4FC5010E94CD0554
:100DB000882361F1F60183A1882309F4B6CF8281EB
:100DC0009381009709F4B1CFDC01ED91FC91019082
:100DD000F081E02D7401D60195960C919597979628
:100DE0002C91979796964C91969794966C9109951D
:100DF0009CCFF60185858823F9F0813041F1D60139
:100E00001E968D919C91892B09F48FCF0F900F9096
:100E10000F900F90DF91CF911F910F91FF90EF9066
:100E2000DF90CF90BF90AF909F908F907F906F900A
:100E30005F904F903F90089591968C91919782503A
:100E4000990B1F969C938E931E971D965C922981F9
:100E50003A818B819C81782F692FF60146855785D1
:100E60004115510581F001962115310539F04150A8
:100E700051095787468721503109EDCF7B836C8319
:100E80001A821982BCCF9C838B833A83298315866F
:100E9000B6CFCF93DF93EC018C819D81DC01ED9186
:100EA000FC910480F581E02D6E81099581E08E8FA3
:100EB0001E821F8E18A219A21AA21CA280E0DF9126
:100EC000CF910895FC01DC01A65ABF4F8C91882375
:100ED000A1F08781681741F0828521E030E0681732
:100EE00029F090E080E0089530E020E0C901880F0B
:100EF000991F820F931FE80FF91F80859185089530
:100F0000FC018781811104C080859185892B59F06E
:100F10008285811106C08385948521E030E0892B8C
:100F200021F080E0089530E020E0C901880F991F8A
:100F3000820F931FE80FF91F67835187408781E075
:100F400008950895DF92EF92FF920F931F93CF932E
:100F5000DF93EC0185E0E62EF12CFE01869FE00D8B
:100F6000F11D1124908596FF24C0192F177001E000
:100F700085E0D82E8FEF800F8F3008F001E0602FD2
:100F800070E0062FD69EF001D79EF00D1124EC0FD5
:100F9000FD1F80858695869586958770181701F1C7
:100FA0006F5F7F4F603168F38D81811302C01150F4
:100FB0001D8385E08E9DF0018F9DF00D1124EC0FB7
:100FC000FD1F108681E0818712862296D783C68313
:100FD000DF91CF911F910F91FF90EF90DF900895D7
:100FE000CE010E94A207C6CFFC0120812EBD9B012D
:100FF0002150310941F051810DB407FEFDCF4EB5AE
:101000005EBD4193F5CF61507109860F971F0DB4F6
:1010100007FEFDCF2EB5FC0120830895FC0121E0E1
:10102000613499F49C01255B3F4F61E0AC014E5F58
:101030005F4F1586668717865487438735962E1728
:101040003F07B9F7FC01158208953585631729F02C
:101050002F5F35962031C9F70895622F0C94A207AF
:10106000CF93DF93FC0167FD12C0283080F4442346
:1010700019F08581873059F0EF01A1E0B0E08D854E
:10108000882349F111962596A031B105C1F780E07A
:1010900018C085E08A9FE0018B9FD00D1124CE0FF0
:1010A000DF1F442389F081E4888785818F5F8583F2
:1010B00025E02A9FC0012B9F900D1124E80FF91FF6
:1010C0008085DF91CF91089581E08887F1CF2770E7
:1010D000687B622B0FC06623E1F26770660F660FB4
:1010E000660F4423A1F3606485818F5F85838770D9
:1010F000687F682B25E02A9FC0012B9F900D11244B
:10110000E80FF91F6087862FDCCFFC0121E0611119
:1011100002C0069608953585631739F02F5F35961E
:101120002031C9F790E080E00895069635E0239FCE
:10113000800D911D112408950F931F93CF93DF937A
:101140002115310599F0E901042F162F0E94850819
:10115000FC0186ED309729F01283D183C08303838D
:1011600080E0DF91CF911F910F91089588EDF9CF25
:1011700090E080E008952E9808952E9A0895813881
:101180002FEF920724F0803891051CF4089581E830
:1011900008958FE70895FC01838180640C94D40145
:1011A000FC01438D548D141615068CF4858D968D97
:1011B000218D328DBA0161507109748F638FF901ED
:1011C000E41BF50BE80FF91F808190E008958FEF85
:1011D0009FEF08950A970C94D008EF92FF920F9317
:1011E000FC01368D323018F0348D361302C00E9467
:1011F000F6190F91FF90EF900895EF92FF920F93E1
:1012000002970E94ED080F91FF90EF9008950895C6
:10121000EF92FF920F931F93422F202F8701DC0143
:10122000ED91FC9100A0F1A1E02D09951F910F9186
:10123000FF90EF90089581E00895FC0184A1089546
:10124000FC018681089580E00895FC01828508955F
:1012500081E0089580E0089580E00895089580E099
:10126000089508950F931F93CF93DF93D82FC62F20
:101270008A0180E591E00E94FB000E94BB08D260D9
:10128000DEBDF8018C2F882339F00DB407FEFDCFA9
:1012900091919EBD8150F7CFC00FD12FD11D0DB4BC
:1012A00007FEFDCF0E94BD08CE01DF91CF911F91B7
:1012B0000F9108950F931F93CF93DF9300D0CDB775
:1012C000DEB7182F062F80E591E00E94FB000E94F8
:1012D000BB08126019830A8362E070E0CE010196B8
:1012E0000E94F4070E94BD080F900F90DF91CF91EC
:1012F0001F910F9108959F92AF92BF92CF92DF926C
:10130000EF92FF920F931F93CF93DF936C01C42F43
:10131000D22F99249394E62EF12CEE0CFF1CE80EAC
:10132000F91E86E5E80EF11CA42EB12CABE2AA0E44
:10133000B11CAA0CBB1CAC0CBD1CF70180819181B7
:10134000DC01ED91FC910280F381E02D202F4D2FE7
:101350006C2F0995182F803EC9F5C1112BC061E093
:1013600088EE0E945A0966E670E080E090E00E94F4
:101370004201F70180819181DC01ED91FC910190A6
:10138000F081E02D202F4D2F6C2F0995182F8D30D7
:10139000D1F58FEF890D8330F8F0C11137C061E0CE
:1013A00088EE0E945A0966E670E080E090E00E94B4
:1013B00042011CC0F50180819181DC01ED91FC911D
:1013C0000284F385E02D6D2F0995D3CF8D3061F424
:1013D0008FEF890D833050F464E670E080E090E098
:1013E0000E9442019394A9CF882319F2812FDF91A3
:1013F000CF911F910F91FF90EF90DF90CF90BF9012
:10140000AF909F900895882389F3C7CF8C2F90E0E9
:101410008B96880F991F8C0D9D1DFC0180819181F9
:10142000DC01ED91FC910284F385E02D6D2F09958F
:10143000DDCF8EBD00000DB407FEFDCF8EB5089543
:10144000CF93C82F80E591E00E94FB000E94BB086B
:101450008C2F0E94190A80E00E94190AC82F0E944E
:10146000BD088C2FCF9108958F929F92AF92BF921B
:10147000CF92DF92EF92FF920F931F93CF93DF9360
:10148000882E962E5A010E9474016B017C0128E877
:10149000C20E23E1D21EE11CF11C10E000E0D0E0FE
:1014A000C0E098280E9474016C197D098E099F097B
:1014B00097FF1EC0692D80EF0E945A090E94740197
:1014C0006C197D098E099F0997FF09C088EC0E945D
:1014D000200A87FFF3CF60E888EC0E945A0988EF62
:1014E0000E94200AC82FCF70C43081F0CE30B9F0EE
:1014F0008C2FDF91CF911F910F91FF90EF90DF9094
:10150000CF90BF90AF909F908F9008950F5F1F4F27
:10151000A114B10439F20A151B0521F6E9CFDF5FEA
:10152000D33009F0BFCFE4CFAF92BF92CF92DF921A
:10153000EF92FF920F931F93CF93DF93EC01B62EA0
:10154000A42E69010E9485087C0186EDE114F10456
:1015500009F447C0D701ED91FC91119787ED3097C1
:1015600009F43FC013969C9180E0981731F02081D8
:10157000A21629F033968F5FF8CFF0E0E0E0D601B5
:10158000ED93FC938BED309761F1228126952695A2
:10159000203108F02FE081E090E0A0E0B0E004C04E
:1015A000880F991FAA1FBB1F2A95D2F70197F80130
:1015B000918380836B2D80EE0E945A0988ED0E94F2
:1015C000200AD70114969C91682F697F992329F0EE
:1015D000CA58DF4F68816260682B88ED0E945A0903
:1015E00080E0DF91CF911F910F91FF90EF90DF90FE
:1015F000CF90BF90AF90089588EF0E94200A807C22
:101600008034B1F018F4882301F10895803819F07E
:10161000803CC9F0089588ED0E94200A81FD0DC02C
:1016200069EC88ED0E945A0982E080938A0208954D
:1016300088ED0E94200A81FDF3CF6BEC88ED0E94BB
:101640005A0983E0F2CF81E0F0CF61ED88ED0E948E
:101650005A0910928A0208952F923F924F925F92F8
:101660006F927F928F929F92AF92BF92CF92DF92B2
:10167000EF92FF920F931F93CF93DF937B013A0179
:101680006901F901A080B180FB013180F90111826B
:101690001082FB01828160E181FD60E288EE0E94A0
:1016A0005A092A2CA301F701608180E00E94340AC4
:1016B000582EF6E08F1310C088EF0E94200AF70121
:1016C00092819D7F84FF9260928360E191FD60E250
:1016D00088EE0E945A09E6CF811150C088EC0E9422
:1016E000200A82FF5FC080E30E94200A482E8A15EC
:1016F0001B0411F008F0422CF60180819181E50174
:10170000C81BD90BD7FF02C0D0E0C0E0842C912CBD
:101710008C169D060CF4E40180E591E00E94FB002C
:101720000E94BB0888E00E94190AAE0170E060E0E8
:10173000C8010E941720209721F0BE01C8010E9415
:10174000F4070C0F1D1F0E94BD0864E088EC0E9486
:101750005A09F60180819181880E991E91828082BA
:10176000431420F08A149B0408F49CCF88EF0E9455
:10177000200AF701928184FB91F99283852DDF91F4
:10178000CF911F910F91FF90EF90DF90CF90BF907E
:10179000AF909F908F907F906F905F904F903F9011
:1017A0002F90089580EF582EE9CFAF92BF92CF923D
:1017B000DF92EF92FF920F931F93CF93DF9300D0AE
:1017C00000D0CDB7DEB77C01690158011C821B82B5
:1017D0001A8219828E010F5F1F4F9E012D5F3F4FAE
:1017E0000E94940A811109C049815A816B817C81D0
:1017F00085019601C7010E942C0B0F900F900F904E
:101800000F90DF91CF911F910F91FF90EF90DF909C
:10181000CF90BF90AF9008954F925F926F927F925A
:101820008F929F92AF92BF92CF92DF92EF92FF92F0
:101830000F931F93CF93DF93CDB7DEB7C254D10977
:101840000FB6F894DEBF0FBECDBFDC0194962C918D
:1018500021111AC0612C862DCE5BDF4F0FB6F89494
:10186000DEBF0FBECDBFDF91CF911F910F91FF90D3
:10187000EF90DF90CF90BF90AF909F908F907F9030
:101880006F905F904F9008957C010E947401F70162
:10189000878C90A0A1A0B2A0681979098A099B0938
:1018A00097FDD8CF0E947401D70193962C91620FB7
:1018B000711D811D911DF701678F70A381A392A3F4
:1018C000712C6E01F1E4CF0ED11C30E4832E912CEB
:1018D00057018AE5A80EB11CD7015D968C91781648
:1018E00008F0B8CFE72DF0E07296EE0FFF1FEE0F75
:1018F000FF1FEE0DFF1D8081E82FF0E0CF01880F64
:10190000991FDC01AE0FBF1FAE0DBF1D96962C9127
:1019100030E0D6012D933C93DE0111962D011D92EE
:10192000AC15BD05E1F7E80FF91FEE0DFF1D8201B3
:10193000960145A1F7016681848195810E94D50BAE
:10194000682E811188CFD6018D919C911197813499
:10195000910510F08D929C92D701ED91FC9100A021
:10196000F1A1E02D8201D6012C91D5014C91B70156
:10197000C7010995D701ED91FC910288F389E02D0B
:10198000D5018C9181116980662DC7010995009759
:1019900069F0DC01ED91FC910190F081E02D820174
:1019A000D6012C91D5014C91B7010995739494CF30
:1019B0003F924F925F926F927F928F929F92AF92DF
:1019C000BF92CF92DF92EF92FF920F931F93CF932C
:1019D000DF93CDB7DEB7C254D1090FB6F894DEBF9E
:1019E0000FBECDBFDC0194962C91222309F4A1C037
:1019F0006C010E947401F601878C90A0A1A0B2A096
:101A0000681979098A099B0997FD93C00E9474019E
:101A1000D60193962C91620F711D811D911DF601C7
:101A2000678F70A381A392A3312C5E01F1E4AF0E06
:101A3000B11C46018AE5880E911CD6015D968C91F9
:101A4000381608F076C0E32DF0E07296EE0FFF1F17
:101A5000EE0FFF1FEC0DFD1D6080662009F467C0CE
:101A6000712C7301EE0CFF1CF701E60DF71DEC0D58
:101A7000FD1D86A190E0F50191838083FE013196E2
:101A80002F011192EA15FB05E1F7F701E60DF71DAD
:101A9000EC0DFD1D8201950145A1D60116966C91B4
:101AA000169714968D919C910E94D50B182F811139
:101AB0003EC0F501808191810097C9F18134910583
:101AC00020F080E490E091838083E60CF71CD6013F
:101AD000AE0DBF1DF60180819181FC01608C718C7F
:101AE0007201F5010081F401208195964C91B601B7
:101AF000C601F3010995D601ED91FC910288F389A5
:101B0000E02DD4018C9181111981612FC6010995B5
:101B1000009769F0DC01ED91FC910190F081E02DDE
:101B20008201D5012C91D4014C91B60109953394D1
:101B300084CF80E0CE5BDF4F0FB6F894DEBF0FBEE0
:101B4000CDBFDF91CF911F910F91FF90EF90DF906C
:101B5000CF90BF90AF909F908F907F906F905F904D
:101B60004F903F9008952F923F924F925F926F92C5
:101B70007F928F929F92AF92BF92CF92DF92EF921D
:101B8000FF920F931F93CF93DF93CDB7DEB7669786
:101B90000FB6F894DEBF0FBECDBF3C01442E322EEF
:101BA000202EEA8ACE8AEBA4FCA4CDA4DEA41E8655
:101BB0001D86188A1F868E01015F1F4F9E01235FBD
:101BC0003F4F0E94940A582E81113BC139822A82CC
:101BD0002A892B833E893C83BE82AD8298868F8280
:101BE000AE014F5F5F4F68E080E20E9432094F858F
:101BF0005889642D80E10E94340A811140C1C114CA
:101C0000D10409F453C00D851E85D80112968C911C
:101C1000129737FE51C0826012968C935401222491
:101C20002394A114B10409F42FC1FC86EB864F85DF
:101C300058896D857E8586019E01255F3F4FC301D2
:101C40000E942C0B582EB6E08B130EC088EF0E941A
:101C5000200AED85FE8585FB882780F98225928103
:101C600080FB91F99283DDCF8111EBC0EFA5F8A93C
:101C70003097A1F06B857C850190F081E02D01907B
:101C8000F081E02DC4018A199B099A8789879E01FA
:101C9000275F3F4FA6018FA598A909958B859C8545
:101CA000A81AB90A8E159F0508F0BBCF4F85588931
:101CB00037FEE1C080EAE0C0816012968C931297F3
:101CC00011968C908FEF880D803408F0DAC02F8445
:101CD00038880E9474019B01AC0128573C4E4F4F3D
:101CE0005F4F2A8B3B8B4C8B5D8BD80112968C916E
:101CF00060E880FF60E488EE0E945A09512C912C24
:101D0000E114F10409F48CC03401E814F90408F476
:101D100037016E8AA601662D80E10E943209662D88
:101D200088E30E945A09F8016081606280EF0E9496
:101D30005A0988EC0E94200A87FFFBCF60E888ECF4
:101D40000E945A0988EF0E94200A8F70582E198A23
:101D5000B12CA12C552021F10E9474012A893B89C4
:101D60004C895D89621B730B840B950B97FF18C020
:101D700036E0531609F440C04EE05416B1F054E07A
:101D8000551209C08FEFA81AB80A2114310491F036
:101D90002A143B0479F460E088E30E945A0942C0A7
:101DA000E618F708C60CD71CABCF99899F5F998BB3
:101DB000933089F360E088E30E945A09D6016C9160
:101DC00080E10E945A096E8988E30E945A09F8014D
:101DD0006081606280EF0E945A0988EC0E94200AAC
:101DE00087FFFBCF60E888EC0E945A0988EF0E94C9
:101DF000200A8F70582EAECF88EF0E94200A85FBF4
:101E0000882780F9A1E08A27F801928180FB90F968
:101E1000928360E890FF60E488EE0E945A09CACF7E
:101E20005110B9CF88EF0E94200AD80112969C91D8
:101E3000129785FB90F912969C934F8558895520EF
:101E4000D1F0852D66960FB6F894DEBF0FBECDBFDC
:101E5000DF91CF911F910F91FF90EF90DF90CF9086
:101E6000BF90AF909F908F907F906F905F904F90BA
:101E70003F902F90089580E8642D0E94340A582ED8
:101E8000E0CF8AED582EDDCF4F855889552009F4D3
:101E900011CFD7CF8F929F92AF92BF92CF92EF92F6
:101EA0000F931F921F923F932F935F934F934A017B
:101EB000B12CA12CCC24C394E12C06E020E840E016
:101EC0000E94B30D0F900F900F900F900F900F90F6
:101ED0000F91EF90CF90BF90AF909F908F9008950B
:101EE000CF92DF92EF92FF920F931F93CF93DF93E6
:101EF000CDB7DEB762970FB6F894DEBF0FBECDBF89
:101F00006C01CB01E22EDB01ED91FC910084F185A7
:101F1000E02D0995F82EF60182818F15E1F09E01E2
:101F20002F5F3F4F42E150E06F2D89E493E00E9424
:101F30004A0F81112CC089859A85D60114969C93ED
:101F40008E9313978B859C8516969C938E931597ED
:101F5000D6011296FC92F601838194818233F5E1D9
:101F60009F07D9F427E02E1508F073C0D801FC9024
:101F700014968D919C910E94BF08D82EF8018681FD
:101F800097810E94BF08D80113969C9120C0F6014A
:101F90001482138216821582DBCF8D36944009F0AD
:101FA0004DC0EBE0EE1508F049C0D8018C918F715F
:101FB000F82E12968D919C910E94BF08D82EF801A0
:101FC000848195810E94BF08D80116969C91F8944F
:101FD00020913402309135022D0D311DD7FC3A95F8
:101FE0003093350220933402209132023091330233
:101FF000280F311D87FD3A9530933302209332022A
:102000002091300230913102290F311D97FD3A9510
:102010003093310220933002F0922F02789462962E
:102020000FB6F894DEBF0FBECDBFDF91CF911F91E9
:102030000F91FF90EF90DF90CF900895B8E0EB12F2
:1020400008C0F80180818F71F82ED280848196813A
:10205000BECF8AEF8E0D823098F4D8018C918F71AB
:10206000F82E11968D919C910E94BF08D82EF801F0
:10207000838194810E94BF08D80115969C91A7CFB7
:10208000EE20A9F0F801F080F1E0FE1588F4D80107
:102090001196DC90B2E090E080E0EB1609F497CF67
:1020A000F8018281F3E090E0EF126DCF90CFF12C38
:1020B00090E080E0D12C8BCF8F929F92AF92BF9215
:1020C000CF92EF920F93CF931F921F921F921F9266
:1020D0001F921F92912C812CB12CA12CC12CE62E89
:1020E00005E020E040E060E00E94B30DC82F6CE204
:1020F00071E080E090E00E9442010F900F900F90FD
:102100000F900F900F908C2FCF910F91EF90CF9059
:10211000BF90AF909F908F9008952F923F924F92D3
:102120005F926F927F928F929F92AF92BF92CF9267
:10213000DF92EF92FF920F931F93CF93DF93CDB770
:10214000DEB767970FB6F894DEBF0FBECDBF1B8A10
:1021500038E03C8B3CE33D8B8A3F3FEF9307D9F45B
:1021600006ED802F67960FB6F894DEBF0FBECDBF89
:10217000DF91CF911F910F91FF90EF90DF90CF9063
:10218000BF90AF909F908F907F906F905F904F9097
:102190003F902F900895122F342E462E7C01DC01A3
:1021A0001696CD90DC901797CE01439617969C9388
:1021B0008E9316971A962C939E012F5F3F4F42E104
:1021C00050E060E0C7010E944A0F582EF701D78205
:1021D000C682082F8111C5CF89849A846B847C8440
:1021E000FD81FE8B3E813F8B670186E5C80ED11CC9
:1021F0005601212CD5018D919C910097F1F52394E6
:10220000B2E0AB0EB11CE0E12E12F4CFF6018081FA
:102210009181009709F070C05394F2E0CF0ED11C69
:1022200030E15312F3CFF7018681978107ED892BB7
:1022300009F497CF1287232D40E0642DC7010E9437
:102240003008D82E04ED882309F48BCF682FC701FE
:102250000E948508009709F483CFDC0114961C9333
:102260006D2DC7010E945C10082F882309F479CFD7
:102270006D2DC7010E940E0874CFDC01ED91FC9119
:102280000084F185E02D09958111B9CFF501808198
:102290009181DC01ED91FC910088F189E02D6F893D
:1022A0000995882309F4ABCFF50180819181DC0188
:1022B000ED91FC910484F585E02DA301B40109950D
:1022C000882361F0012F232D442D622DC7010E9428
:1022D0007B09082F813D09F492CF43CFF50180811E
:1022E0009181DC01ED91FC910684F785E02D6E89EA
:1022F00009958111E7CF83CFDC01ED91FC9100843A
:10230000F185E02D0995811187CFF60180819181BA
:10231000DC01ED91FC910088F189E02D6F89099530
:1023200081110DC0012F232D442D652DC7010E9461
:102330007B09082F877F813D09F013CF6DCFF60110
:1023400080819181DC01ED91FC910484F585E02D83
:10235000A301B401099581115FCFF60180819181BC
:10236000DC01ED91FC910684F785E02D6E890995DD
:102370008823C1F251CF8F929F92AF92BF92CF929A
:10238000EF920F931F931F921F921F930F935F93D0
:102390004F934A01B12CA12C32E0C32EE22E06E06D
:1023A00020E840E00E94B30D0F900F900F900F9027
:1023B0000F900F901F910F91EF90CF90BF90AF9023
:1023C0009F908F9008958F929F92AF92BF92CF92DD
:1023D000EF920F93A42EB12C1F921F921F921F9267
:1023E0001F921F92912C812CC12CE62E01E023E23A
:1023F00040E0FC016285828193810E94B30D0F90C1
:102400000F900F900F900F900F900F91EF90CF9033
:10241000BF90AF909F908F9008958F929F92AF92B0
:10242000BF92CF92EF920F93A62EB12C1F921F92C4
:102430005F934F931F9224E02F9324E0822E912CE0
:10244000C12CE12C00E023EA40E0FC01628582819E
:1024500093810E94B30D0F900F900F900F900F90EB
:102460000F900F91EF90CF90BF90AF909F908F9073
:1024700008958F929F92AF92BF92CF92EF920F9357
:10248000A42EB12C1F921F921F921F921F921F9277
:10249000912C812CC12CE62E03E023E240E0FC01CC
:1024A0006285828193810E94B30D0F900F900F90EF
:1024B0000F900F900F900F91EF90CF90BF90AF9033
:1024C0009F908F900895CF92DF92EF92FF921F938B
:1024D000CF93DF93EC01162F7A01FA01808191816D
:1024E000A281B3818130F3E09F07F1E0AF07B1052E
:1024F000C9F170F48115E1E09E07AE07B10509F45A
:1025000050C081309140A140B10561F180E041C0EF
:10251000833021E0920720E1A207B10529F0833042
:102520009340A041B10591F7412F64E1CE010E9493
:10253000E311412F60E1CE010E94E31164E170E0FC
:1025400080E090E00E9442016A85F7012181269592
:1025500021706770412F8A819B810E948D1010929B
:102560000C02D4CF80910C028111D0CF412F61E1B8
:10257000CE010E94E311412F60E1CE010E94E311E0
:10258000412F64E0CE010E94391281E080930C0259
:1025900081EBDF91CF911F91FF90EF90DF90CF9073
:1025A0000895462F61E1CE010E94E311412F60E1C1
:1025B000CE010E94E31110920C028A858770177079
:1025C000880F880F880F182B09F4A0CFEA80FB80B2
:1025D0006701F6E5CF0ED11CD0E0C0E0D6018D91A9
:1025E0009D916D010097C1F0DC01ED91FC9100849B
:1025F000F185E02D099518130FC0AB96CC0FDD1FA8
:10260000CE0DDF1D88819981DC01ED91FC91048064
:10261000F581E02D09957ACF2196C031D105F1F6EB
:1026200075CFCF92DF92EF92FF920F931F93CF93CC
:10263000DF93CDB7DEB72E970FB6F894DEBF0FBE8F
:10264000CDBFFC012089211111C010E0812F2E96F1
:102650000FB6F894DEBF0FBECDBFDF91CF911F91B3
:102660000F91FF90EF90DF90CF9008957C010E9432
:102670007401F7010485158526853785601B710B6C
:10268000820B930B97FDE1CF81E090E09E878D87D1
:102690008E010F5F1F4F9E01235F3F4F41E0628518
:1026A000828193810E94D50B182F811121C082E075
:1026B000D82E01E089818D2139F119861A861B8671
:1026C0001C86AE01475F5F4F602FC7010E940D124D
:1026D000C82E811119C0AE01475F5F4F602FC7013F
:1026E0000E946312813B19F0882371F0C82E1C2DC3
:1026F0000E9474016C597F4F8F4F9F4FF701648781
:10270000758786879787A2CFDD0C0F5F083091F61B
:1027100001E0F7018385801758F319861A861B8616
:102720001C86AE01475F5F4F602FC7010E940D12EC
:10273000D82E811117C089859A8587709170813054
:10274000914081F48B859C8581609C878B87AE014D
:10275000475F5F4F602FC7010E946312813B29F0E2
:10276000811102C00F5FD5CFD82E1D2DC1CFCF92C2
:10277000DF92FF920F931F93CF93DF9300D000D08F
:10278000CDB7DEB78C01F62E19821A821B821C820D
:10279000462F61E10E94E3114F2D60E1C8010E94C4
:1027A000E3114F2D64E0C8010E94391283E0C82E66
:1027B000D12CAE014F5F5F4F6F2DC8010E940D12EB
:1027C000811114C089819A81AB81BC819D7F833046
:1027D0009140A041B10551F064E670E080E090E0E6
:1027E0000E94420181E0C81AD10819F74F2D64E117
:1027F000C8010E94E3114F2D60E1C8010E94E3115E
:1028000064E170E080E090E00E9442010F900F9040
:102810000F900F90DF91CF911F910F91FF90DF905C
:10282000CF9008952F923F924F925F926F927F9236
:102830008F929F92AF92BF92CF92DF92EF92FF92D0
:102840000F931F93CF93DF93CDB7DEB7E8970FB603
:10285000F894DEBF0FBECDBFDC011A963C9131115A
:102860002BC1922E242E362E3C01FC01E280F380F7
:10287000D701ED91FC910190F081E02D60E0C7015E
:1028800009958C01009709F41AC1FC01C080D18020
:10289000C114D10409F416C15301F4E0AF0EB11C08
:1028A000DC011196BC92AE9214969C92FE01319678
:1028B0002F019F0148E050E060E0D30112968D9116
:1028C0009C910E944A0F982EF8011482811100C138
:1028D0008D8191ED992E893059F58980D701ED913F
:1028E000FC910280F381E02D222D41E0632DC70190
:1028F0000995F3018287882309F4E7C098859583B9
:10290000682F828193810E945C10982ED801CD920D
:10291000DC92882339F1D701ED91FC910480F58197
:10292000E02DD3011A966C91C7010995F301128627
:10293000892DE8960FB6F894DEBF0FBECDBFDF91AC
:10294000CF911F910F91FF90EF90DF90CF90BF90AC
:10295000AF909F908F907F906F905F904F903F903F
:102960002F900895811088C0950142E0F30162859F
:10297000828193810E949C08982E8111D9CF1F9249
:102980001F925F924F921F9288E08F9358E0852E9E
:10299000912CB12CA12C69E2C62EE12C06E020EA94
:1029A00040E0F3016285828193810E94B30D982EED
:1029B0000F900F900F900F900F900F908111B8CF44
:1029C0008B81D3011B968C931B97820120E048E0FA
:1029D00050E01A966C911A9712968D919C910E94D4
:1029E000BB11982E8111A4CF4B815C8120E0F301B3
:1029F0006285828193810E94BB11982E811198CFAC
:102A0000498150E08E010F5D1F4F20E0D3011A96DF
:102A10006C911A9712968D919C910E94BB11982EE1
:102A2000811186CF1F921F921F921F921F921F9299
:102A3000912C812CC12CEE8009E020E040E0F301D4
:102A40006285828193810E94B30D982E0F900F9022
:102A50000F900F900F900F9081116ACF11E0D3016A
:102A60001B968C911B978117D0F0412F68E0C30112
:102A70000E9439121F5FF3CF482D413208F040E227
:102A800050E09201D3011A966C911A9712968D918B
:102A90009C910E944A0F982E81114ACF65CF1296C1
:102AA000ED91FC911397EA58FF4F808184608083F9
:102AB00081E050968C933CCF49ED942E39CF36ED82
:102AC000932E36CF27ED922E33CF84ED982E30CF34
:102AD000D182C0822DCF2F923F924F925F926F9200
:102AE0007F928F929F92AF92BF92CF92DF92EF929E
:102AF000FF920F931F93CF93DF93CDB7DEB7C258EA
:102B0000D1090FB6F894DEBF0FBECDBFDC0116961B
:102B10003C9119ED311114C0B22E942EA62E3C0119
:102B2000FC01C480D580D601ED91FC910190F0812B
:102B3000E02D60E0C60109952C010097E1F416ED47
:102B4000812FCE57DF4F0FB6F894DEBF0FBECDBF3B
:102B5000DF91CF911F910F91FF90EF90DF90CF9079
:102B6000BF90AF909F908F907F906F905F904F90AD
:102B70003F902F900895FC010081118101151105EE
:102B800009F4A3C11301F5E22F0E311CDC011196EB
:102B90003C922E921496BC929E0126593F4F48E0DB
:102BA00050E060E0F301848195810E944A0FF82E85
:102BB00081118DC1AB96FFACAB97D2010D931C93E5
:102BC000D601ED91FC910280F381E02D292D40E0AA
:102BD0006A2DC6010995F301868314ED882309F453
:102BE000AFCFE2969FADE29796A3682F848195813F
:102BF0000E945C10182FD601ED91FC91D201149621
:102C00001C92882359F00480F581E02DD30116969B
:102C10006C91C6010995F301168292CF0190F08163
:102C2000E02DD30116966C91C6010995009709F421
:102C300086CFFC01B482F110A8C0E4968EAD9FADA2
:102C4000E497F301E35AFF4F91838083E6968EADBC
:102C50009FADE697329791838083EC96FFADEC971A
:102C6000C058DF4FF883C058D040910141E0D301F4
:102C700016966C91169714968D919C910E949C08C3
:102C8000F82E811197C02E01B1E44B0E511CF301B7
:102C90003296CF57DF4FF983E883C158D040C20145
:102CA0004096EE969FAF8EAFEE97C058DF4FB8813B
:102CB000C058D040FB1609F489C081E591E0F201CB
:102CC00091838083CF57DF4FA881B981C158D0400D
:102CD000B383A28314821186128615861786168600
:102CE00010A211A212A210A6EE968EAD9FADEE9785
:102CF000968385839087878394878387D3011496EF
:102D00000D90BC91A02DC258DF4FB983A883CE5738
:102D1000D040F301D6808E010F5F1F4F2F2D49E069
:102D200050E06D2DCD010E94BB1181114DC08B80F3
:102D30009C805F924F921F930F93C401A1E48A1667
:102D4000910410F080E490E09F938F93B12CA12C1C
:102D500032E0C32EEF2C06E020E840E06D2DC25893
:102D6000DF4F88819981CE57D0400E94B30D0F90DC
:102D70000F900F900F900F900F90811125C0F301CD
:102D8000868D823018F5F39490CF4F2D433108F0A3
:102D900042E150E09E0126593F4FD30116966C91B7
:102DA000169714968D919C910E944A0FF82E8823B5
:102DB00009F443CFD301ED91FC910480F581E02D1E
:102DC000C30109951F2DBCCEF82EF4CFD3015E961A
:102DD0004C915E9711ED423008F4B2CE91011696F7
:102DE0006C91169714968D919C910E949C081F924D
:102DF0001F921F921F921F921F92912C812CB12C17
:102E0000A12CC12CF301E48C09E020E040E06681B4
:102E1000848195810E94B30D182F0F900F900F9011
:102E20000F900F900F9081114EC0D12CD3015D9661
:102E30008C915D97D816E0F58D2D90E0FC0172968F
:102E4000EE0FFF1FEE0FFF1FE60DF71D2081211172
:102E500002C0D394EBCFFC01EE0FFF1FEE0FFF1F5C
:102E6000E60DF71DEA5BFF4F80818770A82EB12C1D
:102E70001F921F921F921F921F921F92912C812CC2
:102E8000C12CE12C0AE021E240E0F301668184815B
:102E900095810E94B30DF82E0F900F900F900F9018
:102EA0000F900F908823A9F2F5E08F1791F282CF4F
:102EB000ED91FC910688F789E02DC301099581E029
:102EC000F30184A33DCEF82E75CF17ED39CEF20174
:102ED000118300836FCF0E9405201F920F920FB6BF
:102EE0000F9211242F933F938F939F93AF93BF9390
:102EF0008091820290918302A0918402B091850218
:102F00003091810223E0230F2D3758F50196A11D42
:102F1000B11D209381028093820290938302A0933B
:102F20008402B09385028091860290918702A091DD
:102F30008802B09189020196A11DB11D809386027D
:102F400090938702A0938802B0938902BF91AF91BA
:102F50009F918F913F912F910F900FBE0F901F90D7
:102F6000189526E8230F0296A11DB11DD2CF1F92FE
:102F70000F920FB60F9211248F939F938091E100CF
:102F80009091E100937F9093E10083FF0FC0109236
:102F9000E90091E09093EB001092EC0092E39093A3
:102FA000ED001092280298E09093F00082FF22C07A
:102FB00093E09093E9009091F200992319F09AE33D
:102FC0009093E80090912502992341F09091250279
:102FD000915090932502911101C05D9A9091240225
:102FE000992341F0909124029150909324029111E1
:102FF00001C0289A84FF18C08091E2008E7E816013
:103000008093E2008091E1008F7E8093E1008091C7
:1030100026028E7E8061809326029F918F910F9071
:103020000FBE0F901F90189580FFF7CF8091E200A0
:103030008E7E80618093E2008091E1008E7E80939D
:10304000E100809126028E7E8160E5CF1F920F9273
:103050000FB60F921124CF92DF92EF92FF920F934F
:103060001F932F933F934F935F936F937F938F9310
:103070009F93AF93BF93EF93FF93CF93DF93CDB71E
:10308000DEB76C97DEBFCDBF1092E9008091E800FB
:1030900083FF25C068E0CE0145960E94B30282EF0F
:1030A0008093E8008D8987FF39C09091E80090FFF8
:1030B000FCCF982F907609F034C19E894F89588DA6
:1030C0002F89F88C911131C0803861F580912702E9
:1030D0008093F1001092F1008EEF8093E8006C96DF
:1030E0000FB6F894DEBF0FBECDBFDF91CF91FF9139
:1030F000EF91BF91AF919F918F917F916F915F9170
:103100004F913F912F911F910F91FF90EF90DF9082
:10311000CF900F900FBE0F901F9018959EEF909339
:10312000E800C7CF1092F100D5CF913059F481114A
:10313000D3CF4130510581F6809127028D7F809356
:103140002702CACF933049F48111C6CF41305105CF
:1031500019F6809127028260F2CF953041F4809178
:10316000E80080FFFCCF20682093E300B5CF9630C5
:1031700009F0A9C00B8D1C8D82E01092E90010921D
:10318000230210922202F8122EC0109221021092F5
:1031900020020E9432031F8299E09983FA8291E013
:1031A0009E8390EA988792E399872091220230913A
:1031B0002302275F3F4F3C832B838D831092E900CE
:1031C00010922302109222021093210200932002F7
:1031D00049E050E0BE016F5F7F4F80E00E94AE018A
:1031E0000E94320379CF10932102009320020E94A3
:1031F0002003DC0112960D911C910115110509F4B3
:10320000BCC0D801ED91FC910480F581E02DBE0198
:103210006B5E7F4FC8010995009709F0A9C0F801BE
:1032200000851185EACFF3E0FF120EC08F89882355
:1032300009F440C0823061F440E863E188EE90E038
:103240000E94C319811148CF81E28093EB0047CFE0
:10325000813029F440E869E08EED90E0F1CF8330D1
:1032600099F70E942003DC011296ED90FC908E01EC
:103270000F5F1F4F6801E114F10479F0D701ED9160
:10328000FC910680F781E02DB801C7010995080F70
:10329000111DF701E084F184EECFD8011C92F601F4
:1032A00001900020E9F73197BF016C197D0940E0DA
:1032B000C601C6CF68EC70E0FB01449150E080E8A5
:1032C0000E94AE0109CF973009F4BECF983021F4A7
:1032D00081E08093F10000CF993009F0FDCE83703A
:1032E00009F0B2CFEAE1F2E081E031E096E321912A
:1032F000222371F08093E9003093EB00DF011197F6
:103300002C912093EC009093ED008F5F873079F73C
:103310008EE78093EA001092EA008F89809328025A
:10332000DBCE8B8D9C8D1092E900109223021092BF
:10333000220290932102809320020E942003DC014C
:1033400012960D911C910115110509F47DCFD8013C
:10335000ED91FC910190F081E02DBE016B5E7F4FFD
:10336000C80109958111B8CEF80100851185EBCF10
:10337000181619060CF4B0CE67CFF1E0FF1253CF48
:103380006CEC70E099CFEF92FF920F931F93CF9365
:10339000DF93F82E192FE62E042F81E0860F880F79
:1033A0000E94800183E00E948001CF2DD12FEC0E7E
:1033B000FD2EF11CCE15DF05B9F007FF13C0FE018D
:1033C00084910E948001182F80E00E948001812357
:1033D00021968111EFCFDF91CF911F910F91FF9037
:1033E000EF9008958881EDCF81E0F5CF6F927F92C5
:1033F0008F929F92AF92BF92CF92DF92EF92FF9205
:103400000F931F93CF93DF93EC01842F6C8F4D8D1F
:1034100070E060E0A82EB12C822E912C602E712CD1
:10342000641770F56530710559F1DB01AA0FBB1FF8
:10343000AA0FBB1FFE01EA0FFB1FEA5BFF4F908143
:10344000392F37703A151B0409F087C0392F36958C
:103450003695369537703815190409F07EC0929567
:103460009695969593709615170409F076C06E019F
:1034700096E4C90ED11CCA0EDB1EC114D104F9F4A6
:10348000453008F05BC0A4E04A9FA00111246E0102
:10349000B6E4CB0ED11CC40ED51E2770220F220F0E
:1034A000220F982F9770292B902F9295990F990F93
:1034B000907C292BF60120839D8D9F5F9D8FD701E6
:1034C00013969C911397937010E0933029F4129601
:1034D0009C9112E097FD11E0402F682FE881F9815F
:1034E000068CF78DE02DCE010995882339F1112343
:1034F00029F18E8D8B3010F5282F30E0F901EE0F79
:10350000FF1FE20FF31FEC0FFD1FD70112969C91D6
:1035100012979F7095A314969C91149796A394E08C
:1035200097A3C10ED11CF601818316968C919BA1A5
:10353000981708F48BA38E8D8F5F8E8FDF91CF91BC
:103540001F910F91FF90EF90DF90CF90BF90AF90C1
:103550009F908F907F906F9008956F5F7F4F60CFA7
:10356000EF92FF920F9302970E94F6190F91FF902E
:10357000EF900895CF93DF93C1E0C0938F02C09383
:10358000900281EA92E090939202809391021092CD
:10359000940210929302109298021092970288EE71
:1035A00093E0A0E0B0E08093990290939A02A093F8
:1035B0009B02B0939C0283E691E090938C028093EF
:1035C0008B028BE791E09093960280939502C093D3
:1035D000A202C093A3021092A5021092A40210921C
:1035E000A7021092A6021092AB021092AA021092A9
:1035F000AD021092AC0281EC8093A1020E942003E4
:103600006BE872E00E945B031092D7028DE891E0B4
:103610009093D6028093D5028091CD02811112C081
:103620001092C8021092C70285E791E09093CA02F7
:103630008093C9028BE290E09093CC028093CB02FE
:10364000C093CD028091BF02811105C00E94A303E7
:1036500081E08093BF02E091B902F091BA02309705
:1036600009F030C187EC92E09093BA028093B902DE
:103670008091BB029091BC022091CB023091CC0290
:10368000820F931F9093BC028093BB028FEF91E057
:1036900090934A03809349031092510381E08093F1
:1036A0005203109253038BE493E090935003809362
:1036B0004F0310924B0388E080934C038CE380937C
:1036C0004D0310924E03E9E4F3E091E02BE433E084
:1036D00015869687178634872387359683E0E439E5
:1036E000F807B1F71092BF0381E18093D80229EE69
:1036F00031E0309339032093380329E433E03093E9
:103700003B0320933A031092480310923C0388E055
:1037100080933D032CE320933E0390933F038093DB
:10372000400384E0809341031092420310924303CC
:1037300010924403109245031092460310924703DF
:10374000AFE9B3E0FD0190E080E021913191232BBE
:1037500009F0C1C0880F991FFC01E156FC4F88E3B6
:1037600093E09183808389E493E09093DE028093D9
:10377000DD0283E991E09093DA028093D90287EB2E
:1037800091E09093DC028093DB021092F802109299
:10379000F9021092FA021092FB021092FC021092AF
:1037A000FD02109233031092E0021092E202109296
:1037B000E1021092E3021092E5021092E4021092EC
:1037C000E6021092E8021092E7021092E9021092CB
:1037D000EB021092EA021092EC021092EE021092AA
:1037E000ED021092EF021092F1021092F00210928C
:1037F000F2021092F4021092F302E0E2F3E090E0A1
:1038000080E0EC01CC0FDD1FCC0FDD1FC15EDC4F73
:10381000288128732883108211820196349685307E
:10382000910579F7C9EDD2E090E080E01DA2582F14
:1038300028E0811120E02EA3BC01660F771F9B01B9
:10384000280F391F20503D4FF90140814E7F4D7F99
:1038500040833FE0511131E0FB01E80FF91FE050D8
:10386000FD4F330F330F20812370232B20830196CC
:1038700023968B309105D1F681E08093F702109268
:10388000F6021092F50290E080E02D913D91232BFD
:1038900041F5880F991FFC01E156FC4F89ED92E03C
:1038A000918380838DEB91E09093DA028093D9022B
:1038B00083EE91E09093DC028093DB02DF91CF9165
:1038C0000895FC01808191810097D9F787EC92E0FF
:1038D00091838083CDCE01968031910509F035CF5B
:1038E00042CF01968031910581F6DCCFCF93DF93F3
:1038F000CDB7DEB7C054D1090FB6F894DEBF0FBE06
:10390000CDBF789484B5826084BD84B5816084BD68
:1039100085B5826085BD85B5816085BD80916E006D
:10392000816080936E00109281008091810082609E
:1039300080938100809181008160809381008091DB
:1039400080008160809380008091910082608093EC
:10395000910080919100816080939100809190000E
:103960008160809390008091C10084608093C10049
:103970008091C10082608093C1008091C10081600C
:103980008093C1008091C30081608093C3008091C7
:10399000C00082608093C0008091C20081608093EB
:1039A000C20080917A00846080937A0080917A00CE
:1039B000826080937A0080917A00816080937A009F
:1039C00080917A00806880937A0010922802109289
:1039D0002702109226028091D70081608093D70041
:1039E00080EA8093D80089B5806189BD89B58260FD
:1039F00089BD09B400FEFDCF61E070E080E090E099
:103A00000E9442018091D8008F7C80618093D80011
:103A10008091E000807F8093E0008091E1008E7EC5
:103A20008093E1008DE08093E200559A209A1092F5
:103A3000D70219821A821B821C8244E050E0BE0128
:103A40006F5F7F4F85ED92E00E948D0581E492E0EB
:103A50009093A9028093A80280E490E09093A5023D
:103A60008093A4021092A7021092A602269A0E94A6
:103A7000BD081FB7F8948091290281115AC048E40B
:103A800051E0FA01949127E631E0F9018491E92FA0
:103A9000F0E0EE0FFF1FE75DFE4FA591B4919C9102
:103AA000892309F037C0EDE0F1E09491F901249108
:103AB000FA018491882309F42DC09923E9F09150EB
:103AC0009F30D0F4E92FF0E0E859F24E0C94FF1F3C
:103AD000DB1DDF1D771DD31DD71D7C1D7C1D7C1DAF
:103AE000E21DE81DEC1DF01DF61D7C1DFA1D9091D8
:103AF00080009F7790938000E82FF0E0EE0FFF1F8B
:103B0000E55EFE4FA591B4918FB7F8949C91292B57
:103B10002C938FBF81E10E94FE008CB580618CBD2B
:103B20008CB580648CBD8FE00E94FE0080E10E9415
:103B3000FE00809129028F5F809329021FBF209A87
:103B4000289A259868E188E80E945A0960E288E787
:103B50000E945A0960E088E70E945A0910E000E0DC
:103B600088E60E94200A0F5F1F4F80FF49C061EC6A
:103B700088ED0E945A0960E680ED0E945A0964E0CF
:103B800088EE0E945A0988EE0E94200A82FFFBCF2D
:103B90000E94FC0A60E288EC0E945A0961E080E819
:103BA0000E945A0931C0909180009F7DA3CF9091CF
:103BB0008000977F9FCF94B59F7794BD9DCF94B59C
:103BC0009F7DFBCF909190009F779093900094CF32
:103BD000909190009F7DF9CF90919000977FF5CFC5
:103BE0009091C0009F779093C00086CF9091C000C5
:103BF0009F7DF9CF9091C200977F9093C2007CCFB8
:103C00000F3F100709F0ACCF40E051E060E089EDD4
:103C100092E00E94800768EC70E080E090E00E94F3
:103C200042013E0124E0620E711C00E010E020E43D
:103C3000322E83B1382F3072F32E85FD0DC088EC03
:103C40000E94200A85FF04C00E94FC0A90E2F92E1F
:103C50006F2D88EC0E945A0980918A02813041F0D0
:103C600058F0823009F426C1833079F0B12C25C098
:103C700043E14093D802FACF8091D802807F80310F
:103C8000A9F351E15093D802F1CFBB24B3948091B2
:103C9000D802807F803189F40E94740168537F4F7D
:103CA0008F4F9F4F60932A0270932B0280932C02B8
:103CB00090932D0280E28093D8028FE9C82E83E092
:103CC000D82E7601D7018D919D917D01009739F015
:103CD000DC01ED91FC910680F781E02D0995BFEBA9
:103CE000EB16B3E0FB0671F78091D802803409F43B
:103CF0001AC108F0E1C0803209F4FEC0803309F433
:103D00000BC18131A9F41092BF03F6018191919109
:103D10006F01009739F0DC01ED91FC910480F58191
:103D2000E02D0995EC14FD0481F782E18093D8021F
:103D30008BE892E00E94D0081816190634F58530F9
:103D400091050CF428C145E050E065E072E081E4A3
:103D500092E00E940A20892B09F020C183E0E7E06D
:103D6000F1E0DE01119601900D928A95E1F78DE365
:103D7000D3011D928A95E9F740E450E0BE016F5FE0
:103D80007F4F8BE892E00E94CB080E941D01C090FB
:103D90003602D0903702E0903802F09039029B0151
:103DA000AC012C193D094E095F0969017A0138EE11
:103DB000C31633E0D306E104F10408F474C0609341
:103DC0003602709337028093380290933902F89448
:103DD000209134023091350280903202909033026B
:103DE000C0903002D090310250902F0210923502D4
:103DF0001092340210923302109232021092310269
:103E00001092300280913E0290913F02A0903C02BD
:103E1000B0903D02E0903A02F0903B0220904002C8
:103E200010923F0210923E0210923D0210923C020C
:103E300010923B0210923A027894820F931F0E94D4
:103E4000BF08482EC4018A0D9B1D0E94BF08B82ED2
:103E5000C6018E0D9F1D0E94BF085228452D4F712F
:103E6000542E411008C0B11006C0811104C09091B9
:103E70002E024917C1F059824A82BB828C838091FD
:103E8000BF02811105C00E94A30351E05093BF02FD
:103E900044E050E0BE016F5F7F4F8EEA92E00E94E7
:103EA0007D0250922E020115110509F4C2CE0E9426
:103EB0000000BDCEB12CEBCE813509F445C0803871
:103EC00009F455C0803509F033CF88EC0E94200AF0
:103ED00086FF2ECFE1E5E093D8020E9474016C5E6C
:103EE0007F4F8F4F9F4F60932A0270932B028093D6
:103EF0002C0290932D021CCF0E947401C0902A02C4
:103F0000D0902B02E0902C02F0902D026C197D09CC
:103F10008E099F0997FD0CCF61E088EE0E945A0937
:103F20003092D80205CF88EE0E94200A80FD00CF93
:103F300088ED0E94200A682F686088ED0E945A0967
:103F4000B0E5B093D802F4CE0E947401C0902A026A
:103F5000D0902B02E0902C02F0902D026C197D097C
:103F60008E099F0997FDE4CEF0E8F093D8022B2D3F
:103F700040E060E089E493E00E948D10882339F0EE
:103F8000823D09F4D5CE20EA2093D802D1CE30E983
:103F90003093D802CDCE049709F0F7CEF8948091F3
:103FA00041028093400280913E0290913F02209115
:103FB0004202820F911D27FD9A9590933F028093B4
:103FC0003E0280913C0290913D0220914302820F7B
:103FD000911D27FD9A9590933D0280933C0280911C
:103FE0003A0290913B0220914402820F911D27FDDD
:103FF0009A9590933B0280933A027894C6CEEE0F46
:10400000FF1F0590F491E02D099481E090E0F89471
:104010000C941E20FB01DC0104C08D9101908019DD
:1040200021F441505040C8F7881B990B0895DC01DA
:1040300001C06D9341505040E0F70895F894FFCFD0
:104040004B0100000000004F4B000000000000008A
:104050000000000000000000000000000000000060
:104060000000000000000000000000000000000050
:104070000000000000000000000000000000000040
:104080000000000000000000000000700F000000B1
:1040900000080600000000C0033904FE03E303002B
:1040A0000000008404F604D90486057E05D0085A71
:1040B0000559053F05CB08F6FF00005505F302B88A
:1040C0000858057605EA087305000000008D050014
:1040D0000000006B152F094907D80C20092E092C68
:1040E000092A092809620780072309A1071D09F683
:1040F000196B17FEFF0000B01A000000006B152FAF
:104100000949070C0C20092E092C092A09280962E3
:10411000078007230908091D09ED081B090709FE87
:10412000FF0000FD080000000012142F09A6051171
:10413000132509B7132C09C80528090000000085BC
:0C4140000830080E084C554E415200009B
:00000001FF
